:020000040800F2
:1000000098070020F9010008212B00084529000865
:100010001D2B000859040008D9300008000000001A
:100020000000000000000000000000000530000893
:10003000BD04000800000000912B00085D3000089E
:10004000130200081302000813020008130200083C
:10005000130200081302000813020008130200082C
:10006000130200081302000813020008130200081C
:100070005D040008130200081302000813020008C0
:1000800013020008130200081302000813020008FC
:1000900013020008130200081302000813020008EC
:1000A00013020008130200081302000813020008DC
:1000B00013020008130200081302000813020008CC
:1000C00013020008130200081302000813020008BC
:1000D000D12B0008130200081302000813020008C5
:1000E000130200081302000813020008130200089C
:1000F000130200081302000813020008130200088C
:10010000130200081302000813020008130200087B
:10011000130200081302000813020008130200086B
:10012000130200081302000813020008130200085B
:1001300000F002F800F050F814A696E8000CB24463
:10014000B344DA4501D100F047F8BAE80F000FA632
:1001500096E83000A5EB040504EB0607AAEB0704BC
:10016000A7F101074FEA15154FEA3414A4F1010471
:10017000AC4201D300F030F813F0010F18BFFB1AA6
:1001800043F0010300F001F8DBE71847803000007E
:10019000A0300000103A24BF78C878C1FAD85207BE
:1001A00024BF30C830C144BF04680C6070470000F1
:1001B000704700000023002400250026103A28BFC5
:1001C00078C1FBD8520728BF30C148BF0B607047C9
:1001D0001FB51FBD10B510BD00F058F81146FFF750
:1001E000F7FF02F0DBFF00F076F803B4FFF7F2FF51
:1001F00003BC00F07DF8000009488047094800472B
:10020000FEE7FEE7FEE7FEE7FEE7FEE7FEE7FEE7C6
:10021000FEE7FEE704480549054A064B7047000023
:10022000D53000083101000898010020980700200F
:1002300098030020980300204FF0000200B51346F9
:1002400094469646203922BFA0E80C50A0E80C50F6
:10025000B1F12001BFF4F7AF090728BFA0E80C50A7
:1002600048BF0CC05DF804EB890028BF40F8042BA0
:1002700008BF704748BF20F8022B11F0804F18BF0D
:1002800000F8012B7047704770477047754600F0C3
:100290002BF8AE4605006946534620F00700854618
:1002A00018B020B5FFF7B6FFBDE820404FF00006BC
:1002B0004FF000074FF000084FF0000BAC46ACE8E1
:1002C000C009ACE8C009ACE8C009ACE8C00921F03D
:1002D00007018D46704710B50446AFF300802046F5
:1002E000BDE81040FFF781BF0048704710000020B4
:1002F00001491820ABBEFEE726000200704700004F
:1003000086B00591049043208DF80F003F208DF8B2
:100310000E0024200290FFE70298002836D4FFE761
:1003200004980599029AD040C2F1200301FA03F320
:100330001843203AD140002A58BF084600F0010077
:100340008DF807009DF80E00C0F340108DF80600F0
:100350009DF80E0040008DF80E009DF807009DF8F6
:100360000610484007D0FFE79DF80E0080F04300DC
:100370008DF80E00FFE79DF80E0000F03F008DF8AD
:100380000E00FFE7029801380290C5E79DF80E10B5
:100390003F20884306B0704780B588B00191014680
:1003A00001980291079000208860486008600590DD
:1003B0000490C8720390FFE70398052811DCFFE75B
:1003C000049A0598000240EA12610798039BC05CFA
:1003D00040EA022005910490FFE703980130039062
:1003E000EAE702990498059A400D40EAC220520DAE
:1003F000059204900598C0F3802008710598C0F319
:10040000402048719DF8150000F0010088719DF8AA
:100410001000C009C8719DF81000C0F38010087268
:100420009DF8100000F03F004872DDF811000860F0
:1004300004980599800940EA81608909FFF760FF07
:1004400002994A7A801AB0FA80F040098872887A54
:10045000C87208B080BD0000FFE7FEE780B540F23B
:100460009000C2F2000000F083FA80BD84B00390D7
:100470000291019200930398C16B026C012090409D
:1004800048600098039909684860039840681028FC
:1004900009D1FFE7019803990968886002980399D8
:1004A0000968C86008E002980399096888600198A3
:1004B00003990968C860FFE704B0704770470000FF
:1004C00081B0EFF3108072B60090FFE7FEE7000006
:1004D00087B005900491039200208DF80B000598D9
:1004E00018B1FFE7049820B9FFE701208DF81B0041
:1004F00049E0FFE705984079012804D1FFE7022091
:100500008DF81B003FE0059901204871FFE7FFE7E8
:100510000599022008710598006800680190039809
:1005200000F0100140F6FE7000FA01F101988843D6
:10053000019004990868496808430090009803995D
:1005400001F0100100FA01F10198084301900198AF
:10055000059909680860039800F01001C02000FAAE
:1005600001F2059801680868904308600599012028
:100570000871FFE7059900204871FFE79DF80B001F
:100580008DF81B00FFE79DF81B0007B070470000C7
:1005900080B582B00090009820B9FFE701208DF867
:1005A000070016E00098007938B9FFE700990020AD
:1005B0004871009800F012F8FFE7009902200871D6
:1005C000009900200861009A012111718DF807003F
:1005D000FFE79DF8070002B080BD000080B588B03D
:1005E00007900020069005900490039007980068FB
:1005F00047F20041C4F2000188422AD1FFE7FFE739
:1006000041F21C00C4F20200016841F00051016097
:10061000006800F0005002900298FFE7FFE741F207
:100620001800C4F20200016841F004010160006892
:1006300000F0040001900198FFE7302003900320B0
:10064000049040F60000C4F2010003A900F0B2FDDE
:10065000FFE708B080BD000080B596B0159000207F
:100660008DF85300159890F82100022807D0FFE775
:1006700015990420886301208DF8530074E11598C2
:100680000168086820F00E00086015980168086885
:1006900020F001000860159800688121C4F2020171
:1006A0008842C0F0A880FFE7159800680821C4F2CE
:1006B0000201884203D1FFE70120139094E01598CE
:1006C00000681C21C4F20201884203D1FFE7102018
:1006D000129086E0159800683021C4F20201884229
:1006E00004D1FFE74FF48070119077E0159800680F
:1006F0004421C4F20201884204D1FFE74FF4805044
:10070000109068E0159800685821C4F202018842F0
:1007100004D1FFE74FF480300F9059E0159800683E
:100720006C21C4F20201884204D1FFE74FF480102B
:100730000E904AE0159800688021C4F202018842B8
:1007400004D1FFE74FF080700D903BE015980068F2
:1007500040F20841C4F20201884203D1FFE70120C0
:100760000C902CE01598006840F21C41C4F2020184
:10077000884203D1FFE710200B901DE01598006818
:1007800040F23041C4F20201884204D1FFE74FF445
:1007900080700A900DE01598016840F24442C4F25E
:1007A00002024FF48030914208BF4FF480500A900B
:1007B000FFE70A980B90FFE70B980C90FFE70C9867
:1007C0000D90FFE70D980E90FFE70E980F90FFE752
:1007D0000F981090FFE710981190FFE71198129072
:1007E000FFE712981390FFE7139840F20441C4F218
:1007F00002010860A5E0159800680821C4F2020112
:10080000884203D1FFE70120099094E01598006821
:100810001C21C4F20201884203D1FFE71020089096
:1008200086E0159800683021C4F20201884204D1A4
:10083000FFE74FF48070079077E015980068442137
:10084000C4F20201884204D1FFE74FF480500690C1
:1008500068E0159800685821C4F20201884204D16A
:10086000FFE74FF48030059059E0159800686C213F
:10087000C4F20201884204D1FFE74FF480100490D3
:100880004AE0159800688021C4F20201884204D130
:10089000FFE74FF0807003903BE01598006840F24E
:1008A0000841C4F20201884203D1FFE7012002900F
:1008B0002CE01598006840F21C41C4F20201884205
:1008C00003D1FFE7102001901DE01598006840F269
:1008D0003041C4F20201884204D1FFE74FF4807036
:1008E00000900DE01598016840F24442C4F2020203
:1008F0004FF48030914208BF4FF480500090FFE7E2
:1009000000980190FFE701980290FFE7029803909A
:10091000FFE703980490FFE704980590FFE7059828
:100920000690FFE706980790FFE707980890FFE713
:1009300008980990FFE709980421C4F202010860B1
:10094000FFE71599012081F82100FFE715990020A4
:1009500081F82000FFE71598406B20B1FFE715985C
:10096000416B8847FFE7FFE79DF8530016B080BD55
:1009700080B5ACB02B902B98C06B00682A902B9858
:100980000068006829902A982B99096CC840400794
:10099000002840F17581FFE79DF8A400400700287A
:1009A00040F16E81FFE72B98006800688006002800
:1009B00007D4FFE72B980168086820F0040008605E
:1009C000FFE72B9800688121C4F202018842C0F041
:1009D000A880FFE72B9800680821C4F20201884232
:1009E00003D1FFE70420289094E02B9800681C2195
:1009F000C4F20201884203D1FFE74020279086E03D
:100A00002B9800683021C4F20201884204D1FFE72C
:100A10004FF48060269077E02B9800684421C4F260
:100A20000201884204D1FFE74FF48040259068E03E
:100A30002B9800685821C4F20201884204D1FFE7D4
:100A40004FF48020249059E02B9800686C21C4F268
:100A50000201884204D1FFE74FF4800023904AE06E
:100A60002B9800688021C4F20201884204D1FFE77C
:100A70004FF0806022903BE02B98006840F20841E4
:100A8000C4F20201884203D1FFE7042021902CE048
:100A90002B98006840F21C41C4F20201884203D145
:100AA000FFE7402020901DE02B98006840F2304185
:100AB000C4F20201884204D1FFE74FF480601F9026
:100AC0000DE02B98016840F24442C4F202024FF458
:100AD0008020914208BF4FF480401F90FFE71F988D
:100AE0002090FFE720982190FFE721982290FFE7D0
:100AF00022982390FFE723982490FFE724982590DD
:100B0000FFE725982690FFE726982790FFE727988C
:100B10002890FFE7289840F20441C4F202010860DF
:100B2000A5E02B9800680821C4F20201884203D195
:100B3000FFE704201E9094E02B9800681C21C4F26B
:100B40000201884203D1FFE740201D9086E02B98E8
:100B500000683021C4F20201884204D1FFE74FF45B
:100B600080601C9077E02B9800684421C4F2020159
:100B7000884204D1FFE74FF480401B9068E02B9837
:100B800000685821C4F20201884204D1FFE74FF403
:100B900080201A9059E02B9800686C21C4F2020161
:100BA000884204D1FFE74FF4800019904AE02B9867
:100BB00000688021C4F20201884204D1FFE74FF0AF
:100BC000806018903BE02B98006840F20841C4F226
:100BD0000201884203D1FFE7042017902CE02B98F4
:100BE000006840F21C41C4F20201884203D1FFE7D1
:100BF000402016901DE02B98006840F23041C4F26E
:100C00000201884204D1FFE74FF4806015900DE0A7
:100C10002B98016840F24442C4F202024FF4802053
:100C2000914208BF4FF480401590FFE71598169049
:100C3000FFE716981790FFE717981890FFE71898A6
:100C40001990FFE719981A90FFE71A981B90FFE791
:100C50001B981C90FFE71C981D90FFE71D981E90A5
:100C6000FFE71E980421C4F202010860FFE72B98F9
:100C7000C06A20B1FFE72B98C16A8847FFE7B7E158
:100C80002A982B99096CC8408007002840F17F8181
:100C9000FFE79DF8A4008007002840F17881FFE776
:100CA0002B9800680068800600280BD4FFE72B987B
:100CB0000168086820F00A0008602B99012081F87B
:100CC0002100FFE72B9800688121C4F202018842CD
:100CD000C0F0A880FFE72B9800680821C4F2020149
:100CE000884203D1FFE70220149094E02B9800681B
:100CF0001C21C4F20201884203D1FFE72020139097
:100D000086E02B9800683021C4F20201884204D1A9
:100D1000FFE74FF40070129077E02B9800684421B1
:100D2000C4F20201884204D1FFE74FF40050119051
:100D300068E02B9800685821C4F20201884204D16F
:100D4000FFE74FF40030109059E02B9800686C21B9
:100D5000C4F20201884204D1FFE74FF400100F9063
:100D60004AE02B9800688021C4F20201884204D135
:100D7000FFE74FF000700E903BE02B98006840F2C8
:100D80000841C4F20201884203D1FFE702200D901E
:100D90002CE02B98006840F21C41C4F2020188420A
:100DA00003D1FFE720200C901DE02B98006840F253
:100DB0003041C4F20201884204D1FFE74FF40070D1
:100DC0000B900DE02B98016840F24442C4F20202FD
:100DD0004FF40030914208BF4FF400500B90FFE7F2
:100DE0000B980C90FFE70C980D90FFE70D980E9074
:100DF000FFE70E980F90FFE70F981090FFE710980D
:100E00001190FFE711981290FFE712981390FFE7F7
:100E100013981490FFE7149840F20441C4F20201C1
:100E20000860A5E02B9800680821C4F202018842FE
:100E300003D1FFE702200A9094E02B9800681C2160
:100E4000C4F20201884203D1FFE72020099086E026
:100E50002B9800683021C4F20201884204D1FFE7D8
:100E60004FF40070089077E02B9800684421C4F29A
:100E70000201884204D1FFE74FF40050079068E078
:100E80002B9800685821C4F20201884204D1FFE780
:100E90004FF40030069059E02B9800686C21C4F2A2
:100EA0000201884204D1FFE74FF4001005904AE0A8
:100EB0002B9800688021C4F20201884204D1FFE728
:100EC0004FF0007004903BE02B98006840F208411E
:100ED000C4F20201884203D1FFE7022003902CE014
:100EE0002B98006840F21C41C4F20201884203D1F1
:100EF000FFE7202002901DE02B98006840F230416F
:100F0000C4F20201884204D1FFE74FF4007001905F
:100F10000DE02B98016840F24442C4F202024FF403
:100F20000030914208BF4FF400500190FFE7019854
:100F30000290FFE702980390FFE703980490FFE711
:100F400004980590FFE705980690FFE7069807903C
:100F5000FFE707980890FFE708980990FFE70998CE
:100F60000A90FFE70A980421C4F202010860FFE733
:100F7000FFE72B99002081F82000FFE72B98806A7B
:100F800020B1FFE72B98816A8847FFE72FE02A9876
:100F90002B99096CC8400007002827D5FFE79DF86A
:100FA000A4000007002821D5FFE72B9801680868F6
:100FB00020F00E0008602B98C26B016C012000FA33
:100FC00001F151602B9988632B9981F82100FFE78B
:100FD0002B99002081F82000FFE72B98006B20B1AF
:100FE000FFE72B98016B8847FFE7FFE7FFE7FFE785
:100FF0002CB080BD83B0019000200090019820B9F2
:10100000FFE701208DF80B006AE00198006840F2CC
:101010000741C4F20201884218D8FFE70199086825
:101020004FF6F872CBF6FD7210444CF6CD42CCF67A
:10103000CC42A0FB02026FF0030000EA92000864B9
:1010400001990020C4F20200C86318E00199086801
:101050004FF6F832CBF6FD7210444CF6CD42CCF68A
:10106000CC42A0FB02026FF0030000EA9200086489
:10107000019940F20040C4F20200C863FFE7019901
:10108000022081F821000198006800680090009813
:1010900043F6F0718843009001994868D1F808C080
:1010A000CB680A6940EA0C00184310434A691043B0
:1010B0008A691043C9690143009808430090009869
:1010C000019909680860019900208863019A01214B
:1010D00082F82110019981F820008DF80B00FFE7BC
:1010E0009DF80B0003B0704780B586B00490039163
:1010F0000292019300208DF80300FFE7049890F816
:101100002000012804D1FFE702208DF817004CE0F1
:101110000499012081F82000FFE7FFE7049890F888
:101120002100012832D1FFE70499022081F8210033
:1011300004990020886304980168086820F0010081
:10114000086004980399029A019BFFF78FF90498AD
:10115000C06A38B1FFE704980168086840F00E00E3
:1011600008600CE004980168086820F0040008603A
:1011700004980168086840F00A000860FFE70498D6
:101180000168086840F00100086009E0FFE7049981
:10119000002081F82000FFE702208DF80300FFE720
:1011A0009DF803008DF81700FFE79DF8170006B0C3
:1011B00080BD000092B01190109100200F900B9014
:1011C000FFE7109800680F99C840002800F09B8145
:1011D000FFE70F99012088400E90109800680E9943
:1011E00008400D900D980E99884240F08881FFE7E5
:1011F000109840680790002851D0FFE70798012811
:101200003AD0FFE7079802283FD0FFE70798032866
:101210005FD0FFE70798112832D0FFE70798122820
:1012200038D0FFE707980021C1F21101884236D07B
:10123000FFE707980021C1F2120188422FD0FFE793
:1012400007980021C1F22101884228D0FFE70798C2
:101250000021C1F22201884221D0FFE70798002136
:10126000C1F2310188421AD0FFE707980021C1F28C
:101270003201884213D02FE01098C0680B902CE008
:101280001098C06804300B9027E01098C0680830B0
:101290000B9022E01098C0680C300B901DE0109865
:1012A000806818B9FFE704200B9011E0109880685F
:1012B000012806D1FFE708200B900E9811990861CC
:1012C00005E008200B900E9811994861FFE7FFE7B1
:1012D00003E000200B9000E0FFE70D98FF2803D803
:1012E000FFE71198069003E0119804300690FFE79D
:1012F00006980A900D98FF2804D8FFE70F98800001
:10130000059006E00F996FF01F0000EB810005903B
:10131000FFE7059809900A980068099A0F21914003
:1013200088430B99914008430A9908601098C07946
:10133000C006002840F1E280FFE7FFE741F2180015
:10134000C4F20200016841F001010160006800F090
:10135000010008900898FFE70F9820F0030008218B
:10136000C4F2010140580C900F9800F00300810076
:101370000F2000FA01F10C9888430C90119840F668
:101380000001C4F20101884203D1FFE7002004906C
:1013900042E0119840F60041C4F20101884203D1B5
:1013A000FFE70120039034E0119841F20001C4F2FC
:1013B0000101884203D1FFE70220029026E0119844
:1013C00041F20041C4F20101884203D1FFE703204A
:1013D000019018E0119841F60001C4F20101884221
:1013E00003D1FFE7042000900AE0119941F6004282
:1013F000C4F201020620914208BF05200090FFE7D9
:1014000000980190FFE701980290FFE7029803908F
:10141000FFE703980490FFE704980F9901F0030198
:10142000890000FA01F10C9808430C900C980F9970
:1014300021F003010822C4F201028850109880793B
:10144000C006002809D5FFE70D9A40F20841C4F212
:10145000010108681043086008E00D9A40F2084155
:10146000C4F20101086890430860FFE71098807992
:101470008006002809D5FFE70D9A40F20C41C4F21E
:10148000010108681043086008E00D9A40F20C4121
:10149000C4F20101086890430860FFE71098807962
:1014A0008007002809D5FFE70D9A40F20441C4F2F5
:1014B000010108681043086008E00D9A40F20441F9
:1014C000C4F20101086890430860FFE71098807932
:1014D000C00748B1FFE70D9A40F20041C4F2010194
:1014E00008681043086008E00D9A40F20041C4F219
:1014F0000101086890430860FFE7FFE7FFE70F98E6
:1015000001300F905DE612B07047000040F290107D
:10151000C2F200000068704780B584B00290029863
:1015200020B9FFE701208DF80F0039E0029801682B
:101530004CF6CC4008600298016845F255500860AE
:101540000298016840684860029801688068886075
:10155000FFF7DCFF0190FFE702980068C068800792
:10156000A8B1FFE7FFF7D2FF0199401A41F23D31E0
:1015700088420BD3FFE702980068C068800720B15B
:10158000FFE703208DF80F000AE0FFE7E4E7029889
:1015900001684AF6AA20086000208DF80F00FFE7D6
:1015A0009DF80F0004B080BD81B0009000980168E4
:1015B0004AF6AA200860002001B0704740F20400FB
:1015C000C2F20000027840F29011C2F200010868F5
:1015D000104408607047000080B542F20001C4F278
:1015E0000201086840F010000860032000F096F83F
:1015F0000F2000F005F800F03BF8002080BD00004F
:1016000080B582B0009040F20000C2F20000006895
:1016100040F20401C2F200010A784FF47A71B1FB82
:10162000F2F1B0FBF1F001F085F920B1FFE7012004
:101630008DF8070018E000980F280DD8FFE70099F3
:101640004FF0FF30002200F04FF8009840F2080100
:10165000C2F20001086003E001208DF8070003E0FA
:1016600000208DF80700FFE79DF8070002B080BD5D
:1016700083B0FFE741F21800C4F20200016841F0B4
:1016800001010160006800F0010002900298FFE78C
:10169000FFE741F21C00C4F20200016841F08051F2
:1016A0000160006800F0805001900198FFE7FFE7BB
:1016B0000421C4F2010108680090009820F0E06065
:1016C0000090009840F00070009000980860FFE7DC
:1016D00003B0704780B582B08DF807009DF9070010
:1016E00001F0FCFC02B080BD80B586B08DF817001B
:1016F000049103920020029001F008FD02909DF9F0
:101700001700019002980499039A01F00BFA014620
:10171000019801F003FD06B080BD000080B582B0E5
:101720000190019801F01CFD02B080BD80B584B02D
:1017300002900191029820B9FFE701208DF80F0077
:101740001BE1019842F20001C4F20201096801F0B4
:101750000701884216D9FFE742F20000C4F20200F6
:10176000016821F00701019A11430160006800F04F
:1017700007000199884204D0FFE701208DF80F008F
:10178000FBE0FFE702980078800700282AD5FFE7F2
:10179000029800784007002809D5FFE741F20401CC
:1017A000C4F20201086840F4E0600860FFE70298B4
:1017B00000780007002809D5FFE741F20401C4F2D0
:1017C0000201086840F460500860FFE741F204013C
:1017D000C4F20201086820F0F000029A92681043F7
:1017E0000860FFE702980078C007002860D0FFE794
:1017F0000298406801280ED1FFE741F20000C4F2D0
:10180000020000688003002804D4FFE701208DF85F
:101810000F00B2E021E00298406802280ED1FFE7F5
:1018200041F20000C4F2020000688001002804D4E4
:10183000FFE701208DF80F009FE00DE041F200006E
:10184000C4F2020000688007002804D4FFE70120EA
:101850008DF80F0091E0FFE7FFE741F20401C4F2C9
:101860000201086820F00300029A526810430860E1
:10187000FFF74CFE0090FFE741F20400C4F20200C3
:10188000006800F00C0002994968B0EB810F0ED09F
:10189000FFE7FFF73BFE0099401A41F28931884289
:1018A00004D3FFE703208DF80F0066E0E4E7FFE7CD
:1018B000019842F20001C4F20201096801F0070137
:1018C000884216D2FFE742F20000C4F2020001682B
:1018D00021F00701019A11430160006800F0070040
:1018E0000199884204D0FFE701208DF80F0044E001
:1018F000FFE702980078400700280CD5FFE741F287
:101900000401C4F20201086820F4E060029AD2687F
:1019100010430860FFE702980078000700280DD503
:10192000FFE741F20401C4F20201086820F46050AC
:10193000029A126940EAC2000860FFE700F022F84C
:1019400041F20401C4F202010968C9B20A0943F272
:10195000EA11C0F60001895CC84040F20001C2F201
:101960000001086040F20800C2F200000068FFF7C2
:1019700047FE00208DF80F00FFE79DF80F0004B030
:1019800080BD000086B00020059004900390029076
:10199000019041F20400C4F202000068059005982D
:1019A00000F00C000146009100283FD0FFE70098AE
:1019B000042804D0FFE70098082806D037E041F259
:1019C0000020C0F27A00019037E00598C0F383410F
:1019D00043F2FA10C0F60000405C02909DF8160039
:1019E000C007C0B1FFE741F20400C4F20200006882
:1019F000C0F3404143F20A20C0F60000405C04906E
:101A0000029841F20021C0F27A0148430499B0FBE8
:101A1000F1F0039007E0029840F60011C0F23D019A
:101A200048430390FFE70398019006E0FFE741F287
:101A30000020C0F27A000190FFE7019806B07047DD
:101A400080B586B00490049820B9FFE701208DF896
:101A500017002EE304980078C007002800F0AE803D
:101A6000FFE741F20400C4F20200006800F00C003D
:101A7000042813D0FFE741F20400C4F2020000681A
:101A800000F00C0008281BD1FFE741F20400C4F26B
:101A900002000068C003002812D5FFE741F20000F1
:101AA000C4F2020000688003002808D5FFE704980C
:101AB000406820B9FFE701208DF81700F9E27CE0CB
:101AC000FFE704984068B0F5803F09D1FFE741F295
:101AD0000001C4F20201086840F48030086032E07E
:101AE0000498406868B9FFE741F20001C4F20201BE
:101AF000086820F480300860086820F480200860BE
:101B000020E004984068B0F5A02F0DD1FFE741F226
:101B10000001C4F20201086840F4802008600868EF
:101B200040F4803008600CE041F20001C4F2020190
:101B3000086820F480300860086820F4802008607D
:101B4000FFE7FFE7FFE7FFE704984068D0B1FFE752
:101B5000FFF7DCFC0390FFE741F20000C4F2020053
:101B60000068800300280CD4FFE7FFF7CFFC03993F
:101B7000401A652804D3FFE703208DF8170098E288
:101B8000EAE719E0FFF7C2FC0390FFE741F200002B
:101B9000C4F202000068800300280CD5FFE7FFF7BD
:101BA000B5FC0399401A652804D3FFE703208DF89C
:101BB00017007EE2EAE7FFE7FFE7FFE70498007817
:101BC0008007002840F18D80FFE741F20400C4F255
:101BD0000200006810F00C0F13D0FFE741F2040080
:101BE000C4F20200006800F00C00082829D1FFE7C9
:101BF00041F20400C4F202000068C003002820D4AF
:101C0000FFE741F20000C4F20200006880070028EC
:101C100009D5FFE704980069012804D0FFE70120F7
:101C20008DF8170045E241F20001C4F20201086894
:101C300020F0F800049A526940EAC2000860FFE709
:101C40004EE00498006958B3FFE70021C4F2422136
:101C500001200860FFF75AFC0390FFE741F2000003
:101C6000C4F202000068800700280CD4FFE7FFF7E9
:101C70004DFC0399401A032804D3FFE703208DF895
:101C8000170016E2EAE741F20001C4F20201086817
:101C900020F0F800049A526940EAC20008601EE091
:101CA0000021C4F2422100200860FFF72FFC0390BE
:101CB000FFE741F20000C4F202000068800700283C
:101CC0000CD5FFE7FFF722FC0399401A032804D341
:101CD000FFE703208DF81700EBE1EAE7FFE7FFE7F6
:101CE000FFE7049800780007002848D5FFE704982C
:101CF000806918B3FFE740F28041C4F2422101201D
:101D00000860FFF703FC0390FFE741F22400C4F2F0
:101D100002000068800700280CD4FFE7FFF7F6FBFD
:101D20000399401A032804D3FFE703208DF8170016
:101D3000BFE1EAE7012000F02DFF1FE040F2804103
:101D4000C4F2422100200860FFF7E0FB0390FFE7A8
:101D500041F22400C4F202000068800700280CD57C
:101D6000FFE7FFF7D3FB0399401A032804D3FFE7EB
:101D700003208DF817009CE1EAE7FFE7FFE70498EE
:101D800000784007002840F1D880FFE700208DF858
:101D9000070041F21C00C4F202000068C0000028E5
:101DA00013D4FFE7FFE741F21C00C4F20200016810
:101DB00041F080510160006800F080500090009870
:101DC000FFE701208DF80700FFE747F20000C4F2AB
:101DD00000000068C005002822D4FFE747F2000198
:101DE000C4F20001086840F480700860FFF78EFBC1
:101DF0000390FFE747F20000C4F200000068C0054E
:101E000000280CD4FFE7FFF781FB0399401A6528EF
:101E100004D3FFE703208DF817004AE1EAE7FFE764
:101E2000FFE70498C068012809D1FFE741F22001CB
:101E3000C4F20201086840F00100086031E0049833
:101E4000C06868B9FFE741F22001C4F202010868E6
:101E500020F001000860086820F0040008601FE01E
:101E60000498C06805280DD1FFE741F22001C4F2B3
:101E70000201086840F004000860086840F00100B2
:101E800008600CE041F22001C4F20201086820F071
:101E900001000860086820F004000860FFE7FFE721
:101EA000FFE7FFE70498C068E0B1FFE7FFF72EFB0C
:101EB0000390FFE741F22000C4F2020000688007AF
:101EC00000280ED4FFE7FFF721FB0399401A41F2E7
:101ED0008931884204D3FFE703208DF81700E8E03A
:101EE000E8E71BE0FFF712FB0390FFE741F2200059
:101EF000C4F202000068800700280ED5FFE7FFF754
:101F000005FB0399401A41F28931884204D3FFE767
:101F100003208DF81700CCE0E8E7FFE79DF8070005
:101F2000012809D1FFE741F21C01C4F2020108684F
:101F300020F080500860FFE7FFE70498C0690028A0
:101F400000F0B380FFE741F20400C4F20200006831
:101F500000F00C00082800F08280FFE70498C069B8
:101F600002285CD1FFE76021C4F242210020086012
:101F7000FFF7CCFA0390FFE741F20000C4F2020041
:101F80000068800100280CD5FFE7FFF7BFFA03992E
:101F9000401A032804D3FFE703208DF8170088E0D8
:101FA000EAE70498006AB0F5803F0CD1FFE741F200
:101FB0000401C4F20201086820F40030049A926817
:101FC00010430860FFE741F20401C4F2020108680F
:101FD00020F47410049B1A6A5B6A1A431043086069
:101FE0006021C4F2422101200860FFF78FFA0390BC
:101FF000FFE741F20000C4F20200006880010028FF
:102000000CD4FFE7FFF782FA0399401A032804D3A0
:10201000FFE703208DF817004BE0EAE71EE06021A0
:10202000C4F2422100200860FFF770FA0390FFE736
:1020300041F20000C4F202000068800100280CD5C3
:10204000FFE7FFF763FA0399401A032804D3FFE779
:1020500003208DF817002CE0EAE7FFE724E004985E
:10206000C069012804D1FFE701208DF8170020E0A6
:1020700041F20400C4F2020000680290029800F4E9
:1020800080300499096A884208D1FFE7029800F479
:1020900070100499496A884204D0FFE701208DF846
:1020A000170006E0FFE7FFE7FFE700208DF81700C5
:1020B000FFE79DF8170006B080BD000081B00090DA
:1020C00001B0704780B586B00590059800684068FB
:1020D000049005980068806803909DF80C0000F05B
:1020E00040010020B0EB911F11D1FFE70398C0071A
:1020F00068B1FFE79DF8100000F040010020B0EB50
:10210000911F04D0FFE70598016C8847D6E09DF841
:102110000C0000F002010020B0EB510F0BD0FFE7E4
:102120009DF810100020B0EBD11F04D0FFE70598F8
:10213000416C8847C2E09DF80C0000F020010020AF
:10214000B0EB511F0AD1FFE79DF80C0000F04001F1
:102150000020B0EB911F00F0B180FFE79DF8100068
:1021600000F020010020B0EB511F00F0A780FFE736
:102170009DF80C0000F040010020B0EB911F28D02A
:10218000FFE7059890F85100032813D0FFE7059961
:10219000486D40F004004865FFE700200290059874
:1021A0000068C068029005980068806802900298F4
:1021B000FFE70DE0FFE70020019005980068C06888
:1021C000019005980068806801900198FFE775E02C
:1021D000FFE79DF80C0000F020010020B0EB511F3C
:1021E00015D0FFE70599486D40F001004865FFE70D
:1021F00000200090059800688068009005980168AC
:10220000086820F0400008600098FFE7FFE70598A5
:10221000406D002851D0FFE705980168486820F01C
:10222000E00048600599012081F851009DF81000F8
:102230008007002805D4FFE79DF81000C007B8B359
:10224000FFE705980168486820F00300486005989A
:10225000C06CA0B1FFE70598C16C42F6E130C0F652
:10226000000048630598C06CFEF7F6F930B1FFE74F
:102270000599486D40F040004865FFE7FFE7059885
:10228000806CA0B1FFE70598816C42F6E130C0F6A2
:10229000000048630598806CFEF7DEF930B1FFE777
:1022A0000599486D40F040004865FFE7FFE703E00F
:1022B0000598FFF703FFFFE7FFE7FFE706B080BDE4
:1022C00080B584B00290029820B9FFE701208DF814
:1022D0000F006EE00298406A60B9FFE7029840681C
:1022E000B0F5827F01D1FFE703E002990020C861C9
:1022F000FFE705E002990020086102994861FFE7C5
:10230000029900208862029890F8510040B9FFE7D6
:102310000299002081F85000029800F04FF8FFE782
:102320000299022081F8510002980168086820F0A3
:1023300040000860029A019211685068D2F808C003
:10234000D36800F482700CF4044C604403F400631E
:102350001844136903F002031844536903F001039E
:102360001844936903F400731844D36903F03803E5
:102370001844136A03F080031843926A02F400526F
:1023800010430860029801688269042000EA124044
:10239000486002980168C86920F40060C861029929
:1023A00000204865029A012182F851108DF80F0033
:1023B000FFE79DF80F0004B080BD000080B58EB02F
:1023C0000D9000200C900B900A9009900D980068D9
:1023D00043F20001C4F2010188426BD1FFE7FFE73D
:1023E00041F21800C4F20200016841F4805101601A
:1023F000006800F4805008900898FFE7FFE741F27A
:102400001800C4F20200016841F008010160006890
:1024100000F0080007900798FFE7082009900220C5
:102420000A9003200C9040F60040C4F20100029094
:1024300009A90391FEF7BEFE0298039910220992A2
:1024400000220A920B92FEF7B5FEFFE70421C4F2C8
:10245000010108680690069840F0E0600690069832
:1024600040F00100069006980860FFE740F29000F7
:10247000C2F2000001901C21C4F20201016000219F
:10248000416081608022C260016141618161C161FE
:10249000FEF7B0FD18B1FFE7FEF712F8FFE7FFE720
:1024A0000D9840F29001C2F20001C1640D9848629B
:1024B000FFE73FE00D98006843F60001C4F2000119
:1024C000884236D1FFE7FFE741F21C00C4F2020068
:1024D000016841F480410160006800F4804005908B
:1024E0000598FFE7FFE741F21800C4F20200016817
:1024F00041F008010160006800F0080004900498B1
:10250000FFE74FF42040099002200A9003200C902E
:1025100040F60040C4F2010009A9FEF74BFE24205A
:10252000009000221146FFF7DFF80098FFF7D2F87D
:10253000FFE7FFE70EB080BD80B584B00290019147
:10254000ADF80220029890F85100012804D0FFE76E
:1025500002208DF80F00B7E002988068A0B9FFE76D
:1025600002984068B0F5827F0ED1FFE702990420FF
:1025700081F851000298019ABDF80230114600F02E
:10258000C7F88DF80F009FE0019820B1FFE7BDF874
:10259000020020B9FFE701208DF80F0094E0FFE76B
:1025A000029890F85000012804D1FFE702208DF82E
:1025B0000F0089E00299012081F85000FFE7FFE752
:1025C0000299042081F85100029900204865019980
:1025D000029A9163BDF80210029A9187BDF8021029
:1025E000029AD18702990864029948640299888600
:1025F0000299C88602988068B0F5004F0DD1FFE7B8
:1026000002980168086820F040000860029801689C
:10261000086820F480400860FFE70298C16C42F629
:102620003540C0F60000C8620298C16C42F66540B1
:10263000C0F6000088620298C16C42F60140C0F604
:10264000000008630298C16C00204863029B19686F
:102650009A6BD86C0C31DB8FFEF746FD78B1FFE743
:102660000299486D40F010004865FFE7029900208C
:1026700081F85000FFE701208DF80F0024E0029858
:102680000068006800F04000402807D0FFE702988B
:102690000168086840F040000860FFE7FFE7029922
:1026A000002081F85000FFE702980168486840F078
:1026B0002000486002980168486840F001004860C6
:1026C00000208DF80F00FFE79DF80F0004B080BDDB
:1026D00080B582B001900198006843F20001C4F215
:1026E000010188420ED1FFE740F2E000C2F2000093
:1026F00040F27001C2F200010622FFF71DFF00F058
:1027000043FBFFE702B080BD81B0009001B070478D
:1027100080B588B0069005910492ADF80E30069809
:1027200090F851008DF807000698406802909DF8D7
:102730000700012812D0FFE70298B0F5827F09D187
:10274000FFE70698806828B9FFE79DF8070004288E
:1027500004D0FFE702208DF81F00DFE0059838B1B4
:10276000FFE7049820B1FFE7BDF80E0020B9FFE7AE
:1027700001208DF81F00D1E0FFE7069890F8500087
:10278000012804D1FFE702208DF81F00C6E006995A
:10279000012081F85000FFE7FFE7069890F851000C
:1027A000042805D0FFE70699052081F85100FFE7CE
:1027B0000699002048650599069A1163BDF80E1028
:1027C000069A9186BDF80E10069AD1860499069A4B
:1027D0009163BDF80E10069A9187BDF80E10069A07
:1027E000D1870699086406994864069890F85100C4
:1027F00004280FD1FFE70698C16C42F63540C0F6B9
:102800000000C8620698C16C42F66540C0F6000040
:1028100088620EE00698C16C42F64D40C0F600009A
:10282000C8620698C16C42F60550C0F60000886286
:10283000FFE70698C16C42F60140C0F6000008634D
:102840000698C16C00204863069B19689A6BD86C87
:102850000C31DB8FFEF748FC78B1FFE70699486D35
:1028600040F010004865FFE70699002081F850000D
:10287000FFE701208DF81F0050E0069801684868C6
:1028800040F0010048600698816C0020C8620699FB
:10289000896C88620699896C08630699896C48631B
:1028A000069B1A68196B986C0C32DB8EFEF71CFCC9
:1028B00078B1FFE70699486D40F010004865FFE7E2
:1028C0000699002081F85000FFE701208DF81F00D5
:1028D00024E006980068006800F04000402807D017
:1028E000FFE706980168086840F040000860FFE7CD
:1028F000FFE70699002081F85000FFE7069801687D
:10290000486840F02000486006980168486840F038
:102910000200486000208DF81F00FFE79DF81F00AF
:1029200008B080BD81B0009001B0704781B00090C8
:1029300001B0704780B582B00190019800F064FB4F
:1029400002B080BDFFE7FEE780B582B000200190B5
:10295000009040F27C00C2F2000047F20041C4F255
:1029600000010160FDF714FE18B1FFE7FDF7A8FDB7
:10297000FFE73C2000900022019240F27C00C2F26E
:1029800000006946FDF7A4FD18B1FFE7FDF798FDCB
:10299000FFE740F27C00C2F2000069461022FDF71A
:1029A00097FD18B1FFE7FDF78BFDFFE702B080BD93
:1029B00080B582B0FFE741F21400C4F20200016862
:1029C00041F001010160006800F0010001900198F0
:1029D000FFE70C20009000221146FEF785FE0098CC
:1029E000FEF778FE02B080BD83B0FFE741F2180029
:1029F000C4F20200016841F020010160006800F0AB
:102A0000200002900298FFE7FFE741F21800C4F2AD
:102A10000200016841F004010160006800F0040058
:102A200001900198FFE7FFE741F21800C4F20200AD
:102A3000016841F008010160006800F008000090A2
:102A40000098FFE703B0704780B540F2D400C2F2AF
:102A5000000043F20001C4F2000101600021416066
:102A600040F6FF718160FEF757FD18B1FFE7FDF7F3
:102A700027FDFFE780BD000080B582B040F2E00096
:102A8000C2F20000019043F20001C4F201010160B2
:102A90004FF4827141604FF4806181600021C16018
:102AA0000222026141614FF4007282611822C26108
:102AB0000162416281620A21C162FFF701FC18B123
:102AC000FFE7FDF7FDFCFFE702B080BD80B582B0F7
:102AD00040F23810C2F20000009043F60001C4F248
:102AE000000101604FF48271416000210191816019
:102AF000C160016141614FF400728261C161016294
:102B0000416281620A21C162FFF7DAFB18B1FFE777
:102B1000FDF7D6FCFFE702B080BD0000FFE7FEE74F
:102B2000FFE7FEE788B0079006910592079800F04E
:102B3000070004900498C0F10700052803D3FFE7BD
:102B40000420019004E00498C0F107000190FFE721
:102B50000198039004980430062803D8FFE700206A
:102B6000009003E0049803380090FFE7009802907B
:102B700006980399012202FA01F101390840029BEB
:102B8000984005999A40013A1140084308B07047AF
:102B90007047000082B00190019840F20001C2F23B
:102BA00000010968C90844F6D352C1F26202A1FBD0
:102BB0000221890948430090FFE700BFFFE7009822
:102BC000411E00910028F8D1FFE702B070470000D5
:102BD00080B540F23810C2F20000FFF773FA80BDF2
:102BE00080B582B001900198406A00900099002061
:102BF000C8870099C8860098FFF760FA02B080BDC8
:102C000080B582B001900198406A009000980168F8
:102C1000486820F0030048600099486D40F01000BB
:102C200048650099012081F851000098FFF746FAA5
:102C300002B080BD80B582B001900198406A0090DA
:102C40000098FFF761FD02B080BD000080B582B042
:102C500001900198406A00900098FFF767FE02B06B
:102C600080BD000080B584B003900398406A029054
:102C7000FEF74CFC019003980068006800F020000B
:102C8000202839D0FFE702980168486820F020002A
:102C900048600298806868B9FFE702984068B0F51C
:102CA000827F07D1FFE702980168486820F003009F
:102CB000486006E002980168486820F0010048601A
:102CC000FFE70298019A642100F074F820B1FFE751
:102CD000029920204865FFE702990020C8870299E1
:102CE000012081F851000298406D20B1FFE7029861
:102CF000FFF7E4F904E0FFE70298FFF7E9FCFFE7DC
:102D000004B080BD80B584B003900398406A0290FF
:102D1000FEF7FCFB019003980068006800F02000BB
:102D200020282BD0FFE702980168486820F0200097
:102D300048600298019A642100F098F830B1FFE7EA
:102D40000299486D40F020004865FFE7029801684D
:102D5000486820F00300486002990020C886029964
:102D6000C8870299012081F851000298406D20B176
:102D7000FFE70298FFF7A2F904E0FFE70298FFF7E8
:102D8000D1FDFFE704B080BD80B584B040F2700192
:102D9000C2F2000101A8FDF7FFFA9DF80F0038B15B
:102DA000FFE7019840F27801C2F200010860FFE7F6
:102DB00004B080BD80B586B004900391029204985F
:102DC0004068B0F5827F13D1FFE704988068B0F5C2
:102DD000004F06D0FFE704988068B0F5806F07D1F8
:102DE000FFE704980168086820F040000860FFE7EA
:102DF00004984068B0F5827F1BD1FFE70498806893
:102E0000B0F5806F15D1FFE70498039B02996A46DD
:102E100011600121002200F05FF848B1FFE704993A
:102E2000486D40F02000486503208DF8170019E038
:102E300014E00498039B02996A46116080210022E5
:102E400000F04AF848B1FFE70499486D40F02000CF
:102E5000486503208DF8170004E0FFE700208DF897
:102E60001700FFE79DF8170006B080BD80B586B05B
:102E70000490039102920498039B02996A461160A0
:102E80000221012200F028F848B1FFE70499486DBB
:102E900040F02000486503208DF8170017E00498E3
:102EA000039B02996A4611608021002200F014F809
:102EB00048B1FFE70499486D40F0200048650320C1
:102EC0008DF8170003E000208DF81700FFE79DF84C
:102ED000170006B080BD000080B58AB0DDF830C0B4
:102EE000089007918DF81B20059305980190FEF737
:102EF0000DFB024601980C99891A08440390FEF7CD
:102F000005FB0290039840F20001C2F2000109683B
:102F1000C1F3CB3148430490FFE70898006880680C
:102F200007990840401AB0FA80F040099DF81B103C
:102F300088425ED0FFE705980130002858D0FFE7AF
:102F4000FEF7E4FA0299401A0399884204D2FFE797
:102F50000398002842D1FFE708980168486820F0EC
:102F6000E000486008984068B0F5827F13D1FFE721
:102F700008988068B0F5004F06D0FFE70898806891
:102F8000B0F5806F07D1FFE708980168086820F066
:102F900040000860FFE70898806AB0F5005F0FD135
:102FA000FFE7FFE708980168086820F40050086010
:102FB00008980168086840F400500860FFE7FFE7E0
:102FC0000899012081F85100FFE70899002081F855
:102FD0005000FFE703208DF827000EE0049818B991
:102FE000FFE700200390FFE7049801380490FFE713
:102FF00093E700208DF82700FFE79DF827000AB02F
:1030000080BD00007047000080B582B0009000983D
:103010000138B0F1807F03D3FFE70120019019E070
:10302000009801384EF21401CEF2000108604FF012
:10303000FF300F2100F072F84EF21801CEF20001BD
:10304000002008604EF21002CEF20002072111604B
:103050000190FFE7019802B080BD000080B5FEF747
:10306000ADFA80BD80B590B006A800902821FDF78C
:10307000E3F80098002205920492039202920192D2
:10308000092106914FF480310791089201220A929A
:103090000C9202220D920E914FF4E0110F91FEF767
:1030A000CFFC18B1FFE7FDF70BFAFFE70F20019007
:1030B00002210291002003904FF480620492059057
:1030C00001A8FEF733FB18B1FFE7FDF7F9F9FFE7B9
:1030D00010B080BD70470000FFE7FEE781B08DF8BB
:1030E00003009DF9030000280ED4FFE79DF90310AB
:1030F00001F01F02012090404A094EF20011CEF269
:10310000000141F82200FFE701B070474EF60C5075
:10311000CEF200000068C0F30220704782B08DF844
:10312000070000919DF9070000280AD4FFE70098E6
:1031300000019DF907104EF20042CEF200028854C1
:103140000BE0009800019DF8071001F00F014EF60A
:103150001452CEF200028854FFE702B0704700001C
:1031600083B00290029800F0070000904EF60C51D8
:10317000CEF200010868019001984FF6FF0210405E
:1031800001900198009A40EA02200022C0F2FA520F
:10319000104301900198086003B0704780B582B079
:1031A00000200190FEF718FAFFF75CFFFFF71CFC08
:1031B000FFF7FEFBFFF7C8FBFFF746FCFFF75CFCE1
:1031C000FFF784FC40F2E000C2F2000040F2700120
:1031D000C2F200010622FFF7AFF9FFE740F2D40088
:1031E000C2F20000FEF7E0F9F8E70000000000007E
:1031F000000001020304060708090203040506078C
:1032000008090A0B0C0D0E0F1010010230320008D5
:103210000000002010000000940100084032000867
:103220001000002088070000B40100080000000022
:1032300000127A00010000001000000000000000F1
:0400000508000131BD
:00000001FF
